{
  "abi": [
    {
      "type": "constructor",
      "inputs": [
        {
          "name": "tokenAddress",
          "type": "address",
          "internalType": "address"
        }
      ],
      "stateMutability": "nonpayable"
    },
    {
      "type": "function",
      "name": "deposit",
      "inputs": [
        {
          "name": "amount",
          "type": "uint256",
          "internalType": "uint256"
        }
      ],
      "outputs": [
        {
          "name": "",
          "type": "bool",
          "internalType": "bool"
        }
      ],
      "stateMutability": "nonpayable"
    },
    {
      "type": "function",
      "name": "getAddress",
      "inputs": [],
      "outputs": [
        {
          "name": "",
          "type": "address",
          "internalType": "address"
        }
      ],
      "stateMutability": "view"
    },
    {
      "type": "function",
      "name": "getBalance",
      "inputs": [
        {
          "name": "a",
          "type": "address",
          "internalType": "address"
        }
      ],
      "outputs": [
        {
          "name": "",
          "type": "uint256",
          "internalType": "uint256"
        }
      ],
      "stateMutability": "view"
    },
    {
      "type": "function",
      "name": "getTotal",
      "inputs": [],
      "outputs": [
        {
          "name": "",
          "type": "uint256",
          "internalType": "uint256"
        }
      ],
      "stateMutability": "view"
    },
    {
      "type": "function",
      "name": "withdraw",
      "inputs": [
        {
          "name": "to",
          "type": "address",
          "internalType": "address"
        },
        {
          "name": "amount",
          "type": "uint256",
          "internalType": "uint256"
        }
      ],
      "outputs": [
        {
          "name": "",
          "type": "bool",
          "internalType": "bool"
        }
      ],
      "stateMutability": "nonpayable"
    },
    {
      "type": "event",
      "name": "Deposit",
      "inputs": [
        {
          "name": "from",
          "type": "address",
          "indexed": true,
          "internalType": "address"
        },
        {
          "name": "amount",
          "type": "uint256",
          "indexed": false,
          "internalType": "uint256"
        }
      ],
      "anonymous": false
    },
    {
      "type": "event",
      "name": "Withdraw",
      "inputs": [
        {
          "name": "to",
          "type": "address",
          "indexed": true,
          "internalType": "address"
        },
        {
          "name": "amount",
          "type": "uint256",
          "indexed": false,
          "internalType": "uint256"
        }
      ],
      "anonymous": false
    }
  ],
  "bytecode": {
    "object": "0x608060405234801561000f575f5ffd5b50604051610bbd380380610bbd833981810160405281019061003191906100d4565b805f5f6101000a81548173ffffffffffffffffffffffffffffffffffffffff021916908373ffffffffffffffffffffffffffffffffffffffff160217905550506100ff565b5f5ffd5b5f73ffffffffffffffffffffffffffffffffffffffff82169050919050565b5f6100a38261007a565b9050919050565b6100b381610099565b81146100bd575f5ffd5b50565b5f815190506100ce816100aa565b92915050565b5f602082840312156100e9576100e8610076565b5b5f6100f6848285016100c0565b91505092915050565b610ab18061010c5f395ff3fe608060405234801561000f575f5ffd5b5060043610610055575f3560e01c806338cc483114610059578063775a25e314610077578063b6b55f2514610095578063f3fef3a3146100c5578063f8b2cb4f146100f5575b5f5ffd5b610061610125565b60405161006e919061066e565b60405180910390f35b61007f61012c565b60405161008c919061069f565b60405180910390f35b6100af60048036038101906100aa91906106e6565b6101ca565b6040516100bc919061072b565b60405180910390f35b6100df60048036038101906100da919061076e565b6103ff565b6040516100ec919061072b565b60405180910390f35b61010f600480360381019061010a91906107ac565b6105e9565b60405161011c919061069f565b60405180910390f35b5f30905090565b5f5f5f9054906101000a900473ffffffffffffffffffffffffffffffffffffffff1673ffffffffffffffffffffffffffffffffffffffff166370a08231306040518263ffffffff1660e01b8152600401610186919061066e565b602060405180830381865afa1580156101a1573d5f5f3e3d5ffd5b505050506040513d601f19601f820116820180604052508101906101c591906107eb565b905090565b5f5f5f5f9054906101000a900473ffffffffffffffffffffffffffffffffffffffff1673ffffffffffffffffffffffffffffffffffffffff166323b872dd3330866040518463ffffffff1660e01b815260040161022993929190610816565b6020604051808303815f875af1158015610245573d5f5f3e3d5ffd5b505050506040513d601f19601f820116820180604052508101906102699190610875565b9050806102ab576040517f08c379a00000000000000000000000000000000000000000000000000000000081526004016102a2906108fa565b60405180910390fd5b8260015f3373ffffffffffffffffffffffffffffffffffffffff1673ffffffffffffffffffffffffffffffffffffffff1681526020019081526020015f205f8282546102f79190610945565b92505081905550825f5f9054906101000a900473ffffffffffffffffffffffffffffffffffffffff1673ffffffffffffffffffffffffffffffffffffffff166370a08231306040518263ffffffff1660e01b8152600401610358919061066e565b602060405180830381865afa158015610373573d5f5f3e3d5ffd5b505050506040513d601f19601f8201168201806040525081019061039791906107eb565b6103a19190610945565b6002819055503373ffffffffffffffffffffffffffffffffffffffff167fe1fffcc4923d04b559f4d29a8bfc6cda04eb5b0d3c460751c2402c5c5cc9109c846040516103ed919061069f565b60405180910390a26001915050919050565b5f816002541015610445576040517f08c379a000000000000000000000000000000000000000000000000000000000815260040161043c906109c2565b60405180910390fd5b5f5f5f9054906101000a900473ffffffffffffffffffffffffffffffffffffffff1673ffffffffffffffffffffffffffffffffffffffff166323b872dd3086866040518463ffffffff1660e01b81526004016104a393929190610816565b6020604051808303815f875af11580156104bf573d5f5f3e3d5ffd5b505050506040513d601f19601f820116820180604052508101906104e39190610875565b905080610525576040517f08c379a000000000000000000000000000000000000000000000000000000000815260040161051c90610a2a565b60405180910390fd5b8260015f3373ffffffffffffffffffffffffffffffffffffffff1673ffffffffffffffffffffffffffffffffffffffff1681526020019081526020015f205f8282546105719190610a48565b925050819055508260025f8282546105899190610a48565b925050819055508373ffffffffffffffffffffffffffffffffffffffff167f884edad9ce6fa2440d8a54cc123490eb96d2768479d49ff9c7366125a9424364846040516105d6919061069f565b60405180910390a2600191505092915050565b5f60015f8373ffffffffffffffffffffffffffffffffffffffff1673ffffffffffffffffffffffffffffffffffffffff1681526020019081526020015f20549050919050565b5f73ffffffffffffffffffffffffffffffffffffffff82169050919050565b5f6106588261062f565b9050919050565b6106688161064e565b82525050565b5f6020820190506106815f83018461065f565b92915050565b5f819050919050565b61069981610687565b82525050565b5f6020820190506106b25f830184610690565b92915050565b5f5ffd5b6106c581610687565b81146106cf575f5ffd5b50565b5f813590506106e0816106bc565b92915050565b5f602082840312156106fb576106fa6106b8565b5b5f610708848285016106d2565b91505092915050565b5f8115159050919050565b61072581610711565b82525050565b5f60208201905061073e5f83018461071c565b92915050565b61074d8161064e565b8114610757575f5ffd5b50565b5f8135905061076881610744565b92915050565b5f5f60408385031215610784576107836106b8565b5b5f6107918582860161075a565b92505060206107a2858286016106d2565b9150509250929050565b5f602082840312156107c1576107c06106b8565b5b5f6107ce8482850161075a565b91505092915050565b5f815190506107e5816106bc565b92915050565b5f60208284031215610800576107ff6106b8565b5b5f61080d848285016107d7565b91505092915050565b5f6060820190506108295f83018661065f565b610836602083018561065f565b6108436040830184610690565b949350505050565b61085481610711565b811461085e575f5ffd5b50565b5f8151905061086f8161084b565b92915050565b5f6020828403121561088a576108896106b8565b5b5f61089784828501610861565b91505092915050565b5f82825260208201905092915050565b7f5553445a20546f6b656e206465706f736974206661696c6564000000000000005f82015250565b5f6108e46019836108a0565b91506108ef826108b0565b602082019050919050565b5f6020820190508181035f830152610911816108d8565b9050919050565b7f4e487b71000000000000000000000000000000000000000000000000000000005f52601160045260245ffd5b5f61094f82610687565b915061095a83610687565b925082820190508082111561097257610971610918565b5b92915050565b7f5661756c74204e6f7420456e6f7567682042616c616e636500000000000000005f82015250565b5f6109ac6018836108a0565b91506109b782610978565b602082019050919050565b5f6020820190508181035f8301526109d9816109a0565b9050919050565b7f5769746864726177206661696c656400000000000000000000000000000000005f82015250565b5f610a14600f836108a0565b9150610a1f826109e0565b602082019050919050565b5f6020820190508181035f830152610a4181610a08565b9050919050565b5f610a5282610687565b9150610a5d83610687565b9250828203905081811115610a7557610a74610918565b5b9291505056fea26469706673582212204f355cc3cf7988beba196adde4ea65d3f1d65d2918403e58ee4148d3786d5c9b64736f6c634300081e0033",
    "linkReferences": {}
  },
  "methodIdentifiers": {
    "deposit(uint256)": "b6b55f25",
    "getAddress()": "38cc4831",
    "getBalance(address)": "f8b2cb4f",
    "getTotal()": "775a25e3",
    "withdraw(address,uint256)": "f3fef3a3"
  },
  "id": 1
}